:020000040800F2
:1000000000400020E18700084D1100084F11000852
:10001000511100085311000855110008000000009C
:100020000000000000000000000000005711000860
:100030000000000000000000591100085B110008DA
:100040002988000863110008298800082988000809
:1000500029880008298800082988000829880008BC
:1000600029880008298800082988000829880008AC
:10007000298800082988000829880008298800089C
:10008000298800082988000829880008298800088C
:10009000298800085F1100082988000829880008BD
:1000A000298800082988000829880008298800086C
:1000B000298800082988000829880008298800085C
:1000C00029880008298800085D110008298800088F
:0400D0002988000873
:1000D80090B589B000AFF8607B600B46FB721346A1
:1000E800BB723A4B07F110040FCB84E80F00FB7A80
:1000F800102B07D0FB7A182B04D0FB7A202B01D0C9
:1001080006235EE0324B5B68314A43F009035360D3
:100118002F4B32221A60BB7A43F01003DAB22C4B11
:100128009A61FB7A202B0ED0202B10DC102B02D0EA
:10013800182B04D00BE0264B0022DA6008E0244B91
:100148000422DA6004E0224B0822DA6000E000BFF3
:1001580000BF1F4B5B6803F00103002BF9D1FB7A4A
:100168001A46F9681B4800F061FD194BDB68184A0C
:1001780043F08203D36000BF154BDB6803F08003B4
:10018800002BF9D1124BDB68114A23F00303D3602B
:10019800BB7A012B05D0BB7A022B02D0BB7A032B8A
:1001A80004D1102279680C4800F040FDBB7A032B7B
:1001B80006D10A4B1C4607F110030FCB84E80F0049
:1001C800002318462437BD4690BD00BF2C93000875
:1001D8000020034040160340101603400016034059
:1001E80080B584B000AFF8607B600B467B81134616
:1001F8007B727B7A002B0CD01F4BDB681E4A23F0E6
:100208000303D3601C4BDB681B4A43F00103D36034
:100218002AE0194BDB68184A23F00303D360164B16
:10022800154ADB68D3601FE01022F968134800F014
:10023800FDFC114BDB68104A43F08003D36000BF1C
:100248000D4BDB6803F08003002BF9D110220C4919
:10025800786800F0EBFC7B89103B7B81FB681033EE
:10026800FB607B6810337B607B89002BDCD100232B
:1002780018461037BD4680BD0020034000100340DB
:100288002010034080B400AF0B4B5B680A4A43F070
:100298000103536000BF084B5B6803F00103002BA8
:1002A800F9D1054B5B68044A23F008035360002327
:1002B8001846BD4680BC70470020034081F00041CD
:1002C80002E000BF83F0004330B54FEA41044FEA33
:1002D800430594EA050F08BF90EA020F1FBF54EACE
:1002E800000C55EA020C7FEA645C7FEA655C00F06A
:1002F800E2804FEA5454D4EB5555B8BF6D420CDD3B
:100308002C4480EA020281EA030382EA000083EABD
:10031800010180EA020281EA0303362D88BF30BD5D
:1003280011F0004F4FEA01314FF4801C4CEA1131B3
:1003380002D0404261EB410113F0004F4FEA033312
:100348004CEA133302D0524263EB430394EA050F9D
:1003580000F0A780A4F10104D5F1200E0DDB02FA0C
:100368000EFC22FA05F2801841F1000103FA0EF2A0
:10037800801843FA05F359410EE0A5F120050EF166
:10038800200E012A03FA0EFC28BF4CF0020C43FA97
:1003980005F3C01851EBE37101F0004507D54FF0A4
:1003A800000EDCF1000C7EEB00006EEB0101B1F5F4
:1003B800801F1BD3B1F5001F0CD349085FEA30003A
:1003C8004FEA3C0C04F101044FEA445212F5800F45
:1003D80080F09A80BCF1004F08BF5FEA500C50F1E2
:1003E800000041EB045141EA050130BD5FEA4C0CC5
:1003F800404141EB0101013C28BFB1F5801FE9D222
:1004080091F0000F04BF01460020B1FA81F308BF44
:100418002033A3F10B03B3F120020CDA0C3208DD10
:1004280002F1140CC2F10C0201FA0CF021FA02F1EB
:100438000CE002F11402D8BFC2F1200C01FA02F15B
:1004480020FA0CFCDCBF41EA0C019040E41AA2BF80
:1004580001EB0451294330BD6FEA04041F3C1CDA48
:100468000C340EDC04F11404C4F1200220FA04F068
:1004780001FA02F340EA030021FA04F345EA030112
:1004880030BDC4F10C04C4F1200220FA02F001FAD4
:1004980004F340EA0300294630BD21FA04F0294656
:1004A80030BD94F0000F83F4801306BF81F48011EF
:1004B8000134013D4EE77FEA645C18BF7FEA655C62
:1004C80029D094EA050F08BF90EA020F05D054EA34
:1004D800000C04BF1946104630BD91EA030F1EBF39
:1004E8000021002030BD5FEA545C05D1400049413D
:1004F80028BF41F0004130BD14F580043CBF01F530
:10050800801130BD01F0004545F0FE4141F4700115
:100518004FF0000030BD7FEA645C1ABF19461046F0
:100528007FEA655C1CBF0B46024650EA013406BFF1
:1005380052EA033591EA030F41F4002130BD00BFB0
:1005480090F0000F04BF0021704730B54FF480646D
:1005580004F132044FF000054FF0000150E700BFEE
:1005680090F0000F04BF0021704730B54FF480644D
:1005780004F1320410F0004548BF40424FF000013A
:100588003EE700BF42004FEAE2014FEA31014FEA7D
:1005980002701FBF12F07F4393F07F4F81F06051CC
:1005A800704732F07F4208BF704793F07F4F04BF17
:1005B80041F40021704730B54FF4607401F00045F4
:1005C80021F000411CE700BF50EA010208BF704754
:1005D80030B54FF000050AE050EA010208BF704745
:1005E80030B511F0004502D5404261EB41014FF4AE
:1005F800806404F132045FEA915C3FF4D8AE4FF0B6
:1006080003025FEADC0C18BF03325FEADC0C18BF98
:10061800033202EBDC02C2F1200300FA03FC20FAE9
:1006280002F001FA03FE40EA0E0021FA02F1144436
:10063800BDE600BF70B54FF0FF0C4CF4E06C1CEA4F
:1006480011541DBF1CEA135594EA0C0F95EA0C0FC0
:1006580000F0DEF82C4481EA030621EA4C5123EA33
:100668004C5350EA013518BF52EA033541F4801162
:1006780043F4801338D0A0FB02CE4FF00005E1FB15
:1006880002E506F00042E0FB03E54FF00006E1FB5F
:1006980003569CF0000F18BF4EF0010EA4F1FF04A2
:1006A800B6F5007F64F5407404D25FEA4E0E6D41E2
:1006B80046EB060642EAC62141EA55514FEAC520F3
:1006C80040EA5E504FEACE2EB4F1FD0C88BFBCF56F
:1006D800E06F1ED8BEF1004F08BF5FEA500E50F120
:1006E800000041EB045170BD06F0004646EA0101E6
:1006F80040EA020081EA0301B4EB5C04C2BFD4EB18
:100708000C0541EA045170BD41F480114FF0000E10
:10071800013C00F3AB8014F1360FDEBF002001F07E
:10072800004170BDC4F10004203C35DA0C341BDCF8
:1007380004F11404C4F1200500FA05F320FA04F0CA
:1007480001FA05F240EA020001F0004221F00041FE
:1007580010EBD37021FA04F642EB06015EEA430E71
:1007680008BF20EAD37070BDC4F10C04C4F12005A1
:1007780000FA04F320FA05F001FA04F240EA020054
:1007880001F0004110EBD37041F100015EEA430E25
:1007980008BF20EAD37070BDC4F1200500FA05F245
:1007A8004EEA020E20FA04F301FA05F243EA0203C4
:1007B80021FA04F001F0004121FA04F220EA0200D3
:1007C80000EBD3705EEA430E08BF20EAD37070BD19
:1007D80094F0000F0FD101F00046400041EB0101F9
:1007E80011F4801F08BF013CF7D041EA060195F0DB
:1007F800000F18BF704703F00046520043EB030395
:1008080013F4801F08BF013DF7D043EA0603704781
:1008180094EA0C0F0CEA135518BF95EA0C0F0CD08C
:1008280050EA410618BF52EA4306D1D181EA0301D2
:1008380001F000414FF0000070BD50EA410606BFCC
:100848001046194652EA430619D094EA0C0F02D111
:1008580050EA013613D195EA0C0F05D152EA033656
:100868001CBF104619460AD181EA030101F0004174
:1008780041F0FE4141F470014FF0000070BD41F0BD
:10088800FE4141F4780170BD70B54FF0FF0C4CF497
:10089800E06C1CEA11541DBF1CEA135594EA0C0FB6
:1008A80095EA0C0F00F0A7F8A4EB050481EA030E03
:1008B80052EA03354FEA013100F088804FEA0333EA
:1008C8004FF0805545EA131343EA12634FEA0222B8
:1008D80045EA111545EA10654FEA00260EF0004179
:1008E8009D4208BF964244F1FD0404F5407402D2CB
:1008F8005B084FEA3202B61A65EB03055B084FEA5C
:1009080032024FF480104FF4002CB6EB020E75EB58
:10091800030E22BFB61A754640EA0C005B084FEA80
:100928003202B6EB020E75EB030E22BFB61A7546FD
:1009380040EA5C005B084FEA3202B6EB020E75EB48
:10094800030E22BFB61A754640EA9C005B084FEAC0
:100958003202B6EB020E75EB030E22BFB61A7546CD
:1009680040EADC0055EA060E18D04FEA051545EABC
:1009780016754FEA06164FEAC30343EA52734FEA65
:10098800C2025FEA1C1CC0D111F4801F0BD141EADE
:1009980000014FF000004FF0004CB6E711F4801F43
:1009A80004BF01430020B4F1FD0C88BFBCF5E06F23
:1009B8003FF6AFAEB5EB030C04BFB6EB020C5FEA33
:1009C800500C50F1000041EB045170BD0EF0004E88
:1009D8004EEA113114EB5C04C2BFD4EB0C0541EABA
:1009E800045170BD41F480114FF0000E013C90E6B7
:1009F80045EA060E8DE60CEA135594EA0C0F08BF7B
:100A080095EA0C0F3FF43BAF94EA0C0F0AD150EA79
:100A180001347FF434AF95EA0C0F7FF425AF10460C
:100A280019462CE795EA0C0F06D152EA03353FF434
:100A3800FDAE1046194622E750EA410618BF52EAB1
:100A480043067FF4C5AE50EA41047FF40DAF52EA85
:100A580043057FF4EBAE12E74FF0FF3C06E000BF22
:100A68004FF0010C02E000BF4FF0010C4DF804CD2F
:100A78004FEA410C7FEA6C5C4FEA430C18BF7FEAEF
:100A88006C5C1BD001B050EA410C0CBF52EA430C1D
:100A980091EA030F02BF90EA020F0020704710F19D
:100AA800000F91EA030F58BF994208BF90422CBF2C
:100AB800D8176FEAE37040F0010070474FEA410C25
:100AC8007FEA6C5C02D150EA013C07D14FEA430C43
:100AD8007FEA6C5CD6D152EA033CD3D05DF8040BB4
:100AE800704700BF8446104662468C4619466346E6
:100AF80000E000BF01B5FFF7B7FF002848BF10F1BD
:100B0800000F01BD4DF808EDFFF7F4FF0CBF012001
:100B180000205DF808FB00BF4DF808EDFFF7EAFF7D
:100B280034BF012000205DF808FB00BF4DF808ED38
:100B3800FFF7E0FF94BF012000205DF808FB00BF2D
:100B48004DF808EDFFF7CEFF94BF012000205DF8B7
:100B580008FB00BF4DF808EDFFF7C4FF34BF0120C4
:100B680000205DF808FB00BF4FEA410212F50012B1
:100B780015D211D56FF47873B3EB625212D94FEADC
:100B8800C12343F0004343EA505311F0004F23FAC6
:100B980002F018BF404270474FF00000704750EA1B
:100BA800013005D111F0004008BF6FF000407047D8
:100BB8004FF00000704700BF4A0011D212F5001232
:100BC80011D20DD56FF47873B3EB62520ED44FEA9D
:100BD800C12343F0004343EA505323FA02F070471D
:100BE8004FF00000704750EA013002D14FF0FF305B
:100BF80070474FF00000704753B94AB9002908BF41
:100C080000281CBF4FF0FF314FF0FF3000F00CB848
:100C1800ADF1080C6DE904CE07F022FEDDF804E022
:100C2800DDE9022304B07047704700BF844641EAFB
:100C3800000313F003036DD1403A41D351F8043B4C
:100C480040F8043B51F8043B40F8043B51F8043B9E
:100C580040F8043B51F8043B40F8043B51F8043B8E
:100C680040F8043B51F8043B40F8043B51F8043B7E
:100C780040F8043B51F8043B40F8043B51F8043B6E
:100C880040F8043B51F8043B40F8043B51F8043B5E
:100C980040F8043B51F8043B40F8043B51F8043B4E
:100CA80040F8043B51F8043B40F8043B51F8043B3E
:100CB80040F8043B51F8043B40F8043B403ABDD2AD
:100CC800303211D351F8043B40F8043B51F8043B4F
:100CD80040F8043B51F8043B40F8043B51F8043B0E
:100CE80040F8043B103AEDD20C3205D351F8043BDE
:100CF80040F8043B043AF9D2043208D0D2071CBFAA
:100D080011F8013B00F8013B01D30B8803806046D2
:100D1800704700BF082A13D38B078DD010F0030348
:100D28008AD0C3F10403D21ADB071CBF11F8013BB8
:100D380000F8013B80D331F8023B20F8023B7BE707
:100D4800043AD9D3013A11F8013B00F8013BF9D232
:100D58000B7803704B7843708B78837060467047CC
:100D68000348044B834202D0034B03B11847704732
:100D78007400002074000020000000000548064BA5
:100D88001B1AD90F01EBA301491002D0034B03B181
:100D9800184770477400002074000020000000000D
:100DA80010B5064C237843B9FFF7DAFF044B13B1AB
:100DB8000448AFF300800123237010BD40090020D0
:100DC80000000000A890000808B5054B1BB10549B4
:100DD8000548AFF30080BDE80840FFF7CFBF00BF6C
:100DE8000000000044090020A8900008014B0122DF
:100DF8001A707047000000200020704730B5057851
:100E080087B03DB94378114C4BB9114801F0DAF875
:100E1800022323700F4B01221A7007B030BD0E4811
:100E280001F0D0F80D4B02930833621C049301A81B
:100E380008238DF814308DF80450039206F0E6F874
:100E4800002814BF03230423E3E700BF7800002031
:100E58003C93000800000020459300080100002092
:100E680030B5134C89B004F10C0002F087F8012565
:100E780068468DF8005005F02BFE30B99DF8043017
:100E88002BB1022323700B4B1D7009B030BD8DF8B8
:100E98000C30094B0493621C083303A8069305928F
:100EA80006F0B4F8002814BF032304232370ECE7EA
:100EB8007800002000000020010000200378042BA7
:100EC80002D10020FFF7CCBF7047000038B5457845
:100ED80004467DB9037990F91020B0F90E10064840
:100EE80001F070F86379012B04D12846BDE8384039
:100EF800FFF7B6BF38BD00BF5393000880B5584C04
:100F08005848594F594D002392B0237001F05AF8B0
:100F18002378042B00F2A180DFE803F0033E53900E
:100F28009A00534B0993534B0A93534B0B93534BD0
:100F38000C930222524B019301A909A805F0DCFB8E
:100F48005049514801F09CFF0126022303A88DF85F
:100F58000C308DF8106005F0AFFE072303A88DF85C
:100F68000C308DF8106005F0A7FEFF220023CDE9B4
:100F78000D230F930D238DF8183006A80DAB07939A
:100F880005F09AFE0C220DAB06A88DF818200793E1
:100F980005F092FE2670BBE700238DF834303B4BFA
:100FA8000E9308333A4A10930DA808238DF844305D
:100FB8000F9206F02BF8002814BF03230423237094
:100FC800A6E72B780BB3042000264FF001094FF059
:100FD8000208032306A9687684F8246084F825901B
:100FE80084F8268084F8273005F010FDC0B18DF80C
:100FF80034600F96ADF840608DF842600DA806F099
:1010080001F9003818BF012028704FF47A710020C8
:1010180003F090FD00F59C500830E8610323CEE70B
:101028001C4B0F936B7EADF840304FF400638DF886
:1010380034908DF83880ADF84230DFE70423E96951
:101048001148237001F0C8FF0F4801F021FF5FE746
:1010580001F0ECFF3B6E98475AE70023AFE700BF6B
:1010680078000020869300083C92000800000020C9
:10107800F50D0008D50E0008050E0008C50E00087D
:10108800010E0008690E00088400002001000020FD
:10109800790000209C0000201FB50E4C012220463C
:1010A800002101F0ADF801221146204601F0A8F810
:1010B800A4F5E234684601F0ECFD4FF4E1336946EB
:1010C8002046009301F0FAFD0121204601F0EDFDD4
:1010D80004B010BD00F4014008B50121022001F060
:1010E80001FC01211F2001F07DF901210D2001F0F3
:1010F80079F90121202001F075F90121212001F061
:1011080071F90121222001F06DF90121412001F03E
:1011180069F90121032001F065F90121002001F09E
:1011280061F901210E2001F05DF9FFF7B5FFBDE877
:10113800084003F011BA08B5FFF7CEFFFFF7DEFE4F
:10114800002008BD7047FEE7FEE7FEE7FEE77047B0
:1011580070477047704702F02BBE03F013BB70470F
:101168002DE9F84F98460D9B15469A07DDE90B497E
:1011780006460F4623D02A460A9B03EB040A14446A
:10118800A24220D10D9B9B0705D5A2EB050AD145AC
:1011980005EB0A0420D82046BDE8F88F43463946B7
:1011A8002020B0470AF1010ACA450AEB0B02F5D321
:1011B800A9EB04024C4588BF00222A44DCE7A2467A
:1011C800A5EB040BF0E702F1010B1AF8010D4346F9
:1011D8003946B0475A46D3E7434622463946202087
:1011E800B0470AF1010AD2E72DE9F047DDE90D76AB
:1011F80016F0020FDDE90854DDE90BCE9DF82880D2
:101208001FD106F001094FB1B9F1000F06D0B8F1AE
:10121800000F02D116F00C0F00D0013F4FF0300A3A
:1012280004E0202C04D005F804A001347445F8D358
:10123800B9F1000F05D04FF03009A74201D9202C91
:101248002DD116F0100F1FD016F4806F2CD15CB37F
:10125800744501D0BC4227D1B4F1010E23D0BCF1B2
:10126800100F46D1023C16F0200F28D1202C28D090
:101278004FF0780C05F804C00134202C21D04FF031
:10128800300C05F804C00134202C1AD0B8F1000F36
:1012980023D04FF02D0C05F804C0013412E005F8F6
:1012A80004900134C9E77446BCF1100FDBD0BCF1DF
:1012B800020FE2D1202C04D04FF0620CDAE7202C88
:1012C80008D12024CDE90A76CDE90854BDE8F047D5
:1012D800FFF746BF4FF0580CCCE716F0040F02D0CA
:1012E8004FF02B0CD7E716F0080FEBD04FF0200C7F
:1012F800D1E7BCF1020F7446C1D1DDE72DE9F04317
:1013080091B0189D1A9E1D9F0DB927F010077C05F6
:1013180000D515B317F0200F14BF4FF0410E4FF052
:10132800610EAC460DF120080025AEF10A0EBCFB9B
:10133800F6F906FB19C95FFA89F4B9F1090F94BFE8
:1013480030347444E4B2B44508F8014BBCFBF6F4FD
:1013580005F1010501D3202D10D11C9C05941B9C7F
:101368000697CDE903649DF86440CDE9015408ACC3
:101378000094FFF739FF11B0BDE8F083A446D6E723
:101388002DE9F04F95B0DDE91E74269ECDE90A23BC
:1013980057EA040308BF26F010067205CDE90801D4
:1013A800DDE9229B02D557EA040337D016F0200F57
:1013B80014BF412361230DF1300A0025A3F10A0867
:1013C80021464A465B463846FFF716FCD2B2092A40
:1013D80094BF303242444F45D2B274EB0B040AF842
:1013E800012B05F1010501D3202D14D1259B05936F
:1013F800249B0696CDE903939DF88030CDE90153EF
:101408000CAB0093DDE90801DDE90A23FFF7ECFEE8
:1014180015B0BDE8F08F07460C46D1E70025E5E793
:101428002DE9F04F2DED028B93B09DED1E7B1F46ED
:10143800DDE920530B920E9353EC172BCDE90901EC
:10144800104619468DED067B229EFFF75BFB80B1A7
:10145800DDE90601C44B4FF0FF32FFF77BFB40B9D3
:10146800DDE906014FF0FF326FF48013FFF754FBFC
:1014780090B10E9B099822969DED067BDDE90A1234
:10148800CDE920533B468DED1E7B13B0BDEC028B9E
:10149800BDE8F04F00F080B9DDE906010022002325
:1014A800FFF73AFB002800F03681DDE906A303F1D7
:1014B800004B16F480630F93CBF30A53A3F2FF3368
:1014C80007EE903ACBF31302F8EEE77A9FEDA77A8E
:1014D8009FEDA78AA74B42F07F5150464FF000027C
:1014E80041F4401108BF0625A7EE878AFEF7EAFEF9
:1014F80097A3D3E90023FFF79DF8804618EE100A5A
:101508008946FFF73FF802460B4640464946FEF734
:10151800DBFEFFF729FB07EE900AB8EEE77ADFED6E
:10152800967AB6EE008AA7EE278A0446DFED937A0C
:10153800BDEEC88AF8EEC86A67EEE67ADFED906A13
:10154800E7EE267A17EE900AFFF71CF802460B46DC
:10155800CDE90C23FFF76EF8DDE90C2380468946B8
:1015680010461946FEF7B0FE864BCDE91001002261
:1015780040464946FFF788F9834B0022FEF7A4FE50
:1015880002460B4640464946FFF77EF97F4B00224C
:10159800FEF79AFE02460B4640464946FFF774F9A5
:1015A800DDE90C238046894600204FF08041FEF794
:1015B80089FE02460B4640464946FEF785FE02462E
:1015C8000B46DDE91001FFF75FF9714B0022FEF7CA
:1015D8007BFE18EE103A03F2FF3C00224FEA0C5350
:1015E800FFF728F852465B4680468946FFF7B2FA6D
:1015F800002840F09380CDE90C8904F16303C62BE1
:101608008CBF4FF005084FF0040831051ED552A3D2
:10161800D3E9002350465946FFF792FA002800F014
:1016280087804FA3D3E9002350465946FFF774FA41
:1016380000287DD0A542C8BF2C1B4FF00008CCBFA6
:1016480004F1FF35002546F4806644460E9B984514
:1016580034BFA3EB08094FF0000916F002030F93FB
:1016680004D0B8F1000F18BF4FF000093CB1504644
:101678005946DDE90C23FFF707F982468B46DDE979
:10168800060100220023FFF747FA10B10BF10043CF
:101698009B4626F40063CDE90393DDE90A12CDE900
:1016A80000AB099802953B4600F076F80246B8F17F
:1016B800000F2AD016F0200F00F101050A99099EA3
:1016C8000CBF652045203B46B0470523059308F12C
:1016D800FF33049300220A23002CCDE902324FEA9B
:1016E800D473B8BF644201932A463B46DDE9090139
:1016F8000094FFF703FE0F9B024633B10B9BC41AFD
:101708000B9B1A190E9BA34219D8104613B0BDECB7
:10171800028BBDE8F08FDDE906ABCAE61A4B002262
:1017280040464946FFF7B0F8013CCDE90C0164E7B3
:10173800002D8BD00F9B002B88D0013D86E70A999E
:10174800099D3B462020A8470134D9E7AFF3008024
:1017580000000060A787D23F000000E0E2361A3F91
:101768000000000080842E41FFFFEF7F9B209A3EFF
:101778004451343E0000F83F789A54401872313F83
:101788008E5D134000002C400000244000001840EB
:101798000000F03F000000002DE9F04F97B0DDE9B0
:1017A80020ABCDE90501CDE90723504652465B46FB
:1017B8005946DDE92258249FFFF7A4F970B903239D
:1017C800CDE922872193AE4B2093DDE90501DDE9C0
:1017D800072317B0BDE8F04FFFF7C2BC4FF0FF3248
:1017E8006FF4801350465946FFF796F928B1042341
:1017F8002193CDE92287A34BE6E7A34B4FF0FF32B5
:1018080050465946FFF7A6F968B1A04A07F0040305
:10181800002B08BF03229E4B1CBF13460422CDE9B0
:1018280022872192D0E792A3D3E900235046594654
:10183800FFF790F938B990A3D3E9002350465946E9
:10184800FFF76AF968B1DDE90723DDE90501CDE9AC
:101858002387CDE920AB229517B0BDE8F04FFFF7FD
:10186800DFBD0022002350465946FFF755F90028EE
:1018780000F091805B46524600200021FEF722FDD1
:10188800012382468B46099317F4806400F0858013
:10189800092D40F285800EABA5F109020024302104
:1018A8000134202C03F8011BA5EB040901D0944254
:1018B800F6D159465046FFF757F9764B03EBC90363
:1018C80093ED007B05468DED0A7BFEF749FE024647
:1018D8000B4650465946FEF7F5FCDDE90A23FEF7AC
:1018E800A9FE02460B46CDE90C23FFF765F906462B
:1018F800FEF726FE02460B46DDE90C01FEF7E2FC88
:1019080002460B46CDE90C23634B0022FFF722F970
:10191800002848D001363046FEF712FE02460B4634
:10192800DDE90A01FFF702F908B101350026B9F12E
:10193800000F45D12846FEF713FE02460B465046D7
:101948005946FEF7BFFC544B0022FFF7E5F810B9E3
:10195800E90700D501350EAB1A190A21202C0AD047
:1019680095FBF1F001FB1055303502F8015B0134AD
:1019780005460028F2D107F00302012A5DD1B8F12B
:10198800000F5AD0099A12B917F00C0F01D008F1BC
:10199800FF3830223FE0099076E74FF0060988E7E4
:1019A800A946002485E7DDE90C013B4B0022FFF73F
:1019B800B3F80028BBD10EB1F007B8D50136B6E7A9
:1019C8000EAB1A190A21202C0CD0B6FBF1F001FB42
:1019D80010633033092E02F8013B09F1FF3904F195
:1019E800010411D8A1440EAA3021202CB3D04C45B3
:1019F80004F101030AD104F158020DEB02042E226E
:101A080004F8202C1C46A6E70646DCE7A1541C4631
:101A1800EBE71A55013444450FD2202CF9D10EAB0F
:101A28000093CDE90287DDE90723DDE9050101948B
:101A3800FFF796FB17B0BDE8F08F202CEFD0099B7D
:101A48003BB104F158036B442D2203F8202C0134D8
:101A5800E5E77A0704D504F158036B442B22F4E731
:101A68003B07DCD504F158036B442022EDE700BFA7
:101A78000000000065CDCD410000000065CDCDC15E
:101A8800A2930008A6930008FFFFEF7F9993000830
:101A98009E930008C09000080000E03F014610B186
:101AA800014801F0F1B87047003000402DE9F04FCF
:101AB80091B098460B1E0A93B34B1A9E914614BFD9
:101AC80083469B46002598F8000060B94D450A9961
:101AD8002CBF09F1FF322A464B460020D84728463A
:101AE80011B0BDE8F08F252808F1010806D02A4674
:101AF8000A996C1C4B46D8472546E4E70023414623
:101B080011F8012B2B2A16D00AD8202A16D0232AFE
:101B180017D0A2F13000092834D800270A2418E089
:101B28002D2A05D0302AF4D143F001038846E6E790
:101B380043F00203FAE743F00403F7E743F008032E
:101B4800F4E743F01003F1E704FB0722A2F13007A2
:101B58008846414611F8012BA2F130000928F3D933
:101B680098F800202E2A52D198F80110A1F13000DF
:101B7800092808F1010243F480633ED800244FF09D
:101B88000A0E11E02A2A08D156F8047B002FBCBFA0
:101B980043F002037F428846E2E70027E0E70EFBB6
:101BA8000411A1F130040246104610F8011BA1F1FE
:101BB800300CBCF1090FF2D99046424612F8011BCD
:101BC8006C292DD025D8682933D06A293BD04246C4
:101BD800904618F8010B672860D8572836D845284A
:101BE80008D084D9462800F0188147287FF47FAFB1
:101BF80043F4006343F0200329E12A2906D156F86B
:101C0800044B08F1020824EAE474D6E7904600245D
:101C1800D3E7742901D07A29D9D143F48073D7E75F
:101C280098F801106C29F8D143F4407308F10202C6
:101C3800CEE798F80110682902D043F08003C7E77F
:101C480043F0C003F2E743F40073C1E7A0F1580280
:101C58000F2A3FF64CAF01A151F822F0051D0008EC
:101C6800F71A0008F71A0008F71A0008F71A000808
:101C7800F71A0008F71A0008F71A0008F71A0008F8
:101C8800F71A0008051D0008791E0008051D000840
:101C98004B1E0008271E00084B1E0008A0F1690112
:101CA800C9B20F293FF623AF01228A4049F2410CFD
:101CB80012EA0C0218D10A2900F0198107297FF4C9
:101CC80016AF43F0210305930823CDE903431023FE
:101CD800CDE9012356F8043B00930A994B462A465E
:101CE8005846FFF70BFBAAE06F2800F0648110D973
:101CF800782808D1102223F00C0310E0582839D096
:101D0800622800F05A8123F010030A22642806D0C2
:101D1800F1E7692823F010034FF00A02F6D15905BC
:101D280048BF23F00103692803F4007101D0642837
:101D380040D111B3073626F00706B24670685AF844
:101D4800081B0694CDE9077300230593C30F0028E9
:101D5800029304920B4602DA4B4260EB4000CDE955
:101D680000300A994B462A465846FFF709FB0546B4
:101D78005646A8E643F02003BCE7D90506F1040A55
:101D880004D5316805E000BF6711000858060CD576
:101D98003178CDE90224CDE9047300294FEAD173E3
:101DA8000193B8BF4942009120E01906E9D5B6F978
:101DB8000010EEE779B1CDE907730023CDE90423DC
:101DC80006F1070A2AF0070A06940293FAE80223A2
:101DD800CDE90023C5E7D80506F1040A0DD5CDE9FC
:101DE8000473CDE902240191336800930A994B46A4
:101DF8002A465846FFF782FAB9E7590607D53178D7
:101E0800CDE904730023CDE902240193CBE73168BF
:101E180013F0800F18BF89B2F2E743F02003CDE931
:101E28000373073626F007060294F6E802230A9998
:101E3800CDE9002358464B462A46FFF7ADFC054638
:101E480041E600F0DF00472801D143F40063CDE903
:101E58000373073626F007060294F6E802230A9968
:101E6800CDE9002358464B462A46FFF7D9FAE6E75C
:101E780013F0020426D04FF0010A6B1C0B930A9949
:101E880016F8040B4B462A46D84774B30B9A5446A7
:101E980021E00A994B462020D8470AEB05020AF1AF
:101EA800010A5745F5D83A1E18BF0122002A07F142
:101EB800FF3308BF002307F1010A1D4408BF4FF094
:101EC800020ADAE7A246E8E7551C0A994B462020A1
:101ED800D84701342A46BC42F6D30B9AA7EB0A032B
:101EE800574538BF00231A440B920B9DEBE5324649
:101EF80052F804AB0B92324ABAF1000F08BF92466F
:101F0800002C14BF21464FF0FF315144524610783F
:101F180008B1914210D1A2EB0A0613F480620C9228
:101F280002D0A64228BF264613F002030D9317D10C
:101F3800731B2A460F9308E00132E8E7531C0E93FF
:101F48000A994B462020D8470E9A0F9BD318BB42BC
:101F5800F4D3BB1BB74238BF0023721C1D449E1824
:101F6800A5EB0A030E9304E01C460A994B462A4641
:101F7800D8470E9B0AEB03051AF8010B28B10C9BF6
:101F8800002BF2D0631E002CEED10D9B8BB12A469C
:101F9800741B06E002F1010A0A994B462020D84733
:101FA80052461319BB42F5D3BB1BB74238BF0023B7
:101FB8001D440B9E87E508229DE602229BE600BF92
:101FC800AB9300080FB41FB506AA02A952F8043B48
:101FD8000392009204484FF0FF32FFF767FD05B007
:101FE8005DF804EB04B07047A51A0008064B0748D3
:101FF800E02283F82220C0210023C2180133252BB8
:1020080082F80013F9D1704700ED00E000E100E02C
:102018000F4A08B5D2F8883043F47003C2F8883004
:102028004FF08042D36843F08003D36002F500325A
:10203800536923F4702343F48033536193689B07F7
:10204800FCD5FFF7D3FFBDE8084000F003B800BF98
:1020580000ED00E008B5012000F05CF90C4B984257
:1020680014D90C4A0133B0FBF3F313700A4A4FF446
:102078007A73B0FBF3F04FF0E0230138E0215861A8
:1020880082F8231000229A6107221A6108BD00BF56
:102098003F420F00AC00002000ED00E070B50C4B93
:1020A8004FF0E0241B78666973B1A1695843002397
:1020B800A2699142FCD095BFB51A5B1849199B1AC1
:1020C80098BF5B18834200D370BD1146F0E700BF8C
:1020D800AC0000204FF47A735843FFF7DFBF0000CD
:1020E800012310B58B40062A00F28180DFE802F058
:1020F800040F1B293849630002681A43026082688A
:102108001A438260C26822EA0303C36018E00268C7
:102118001A43026082681A438260C2681A43C26026
:10212800026913430BE002681A43026082681A438B
:102138008260C2681A43C260026922EA030303612B
:1021480010BD026822EA03020260826822EA0302E2
:102158008260426822EA03024260826913430EE009
:10216800026822EA03020260826822EA03028260AD
:10217800426822EA03024260826922EA0303836119
:10218800DEE71E4CA0426FEA03020BD1072909D9EA
:1021980081691140816181680A40826002681A433E
:1021A8000260BDE701681140016081680A408260F1
:1021B80042681A43D0E7114CA0426FEA03020AD1E1
:1021C800072908D9816911408161816811408160BE
:1021D80001680A40E4E70168114001608168114024
:1021E800816041680B43436083691340C7E7026815
:1021F8001A430260826822EA030282E700FC014077
:10220800072910B511D90E4B083998420BBF01EBBD
:102218004101890007230F238B4002FA01F1C26BA9
:1022280022EA03030B43C36310BD836B89000F24A9
:102238008C4023EA04038A401A438263F4E700BF10
:1022480000FC0140294A536843F0100310B553605D
:10225800274B1B699C0701BF536823F4700343F4A1
:1022680080135360234A136943F0040313611F4B1F
:102278001A6881B122F0200202281A600ED81A6862
:1022880022F0030202431A6000292BD01A4B0422C1
:102298005A6030BF10BD42F02002EDE7174B1A68B4
:1022A80092060AD5164C174A9C619A611A6822F060
:1022B80020021A6000229C619A61134A136B5C0425
:1022C8005CBF43F480431363084B1A6842F003026F
:1022D8001A605A6803280CBF42F0807222F080729C
:1022E8005A60D1E740BF20BF20BFD3E700180040A5
:1022F8000020001000ED00E000E100E000000240D6
:10230800BFAE9D8C16151413008000400121FFF705
:1023180099BF00004FF0804301461A6802F4E0427A
:10232800B2F5C04F21D019D8B2F5A04F1FD020D890
:10233800B2F5805F1FD0B2F5005F1A4808BF4FF4AE
:10234800004002291AD0032922D0012905D14FF0D3
:1023580080431B68C3F30323D8407047114B1248CE
:10236800B2F5E04F18BF1846EBE71048E9E7104808
:10237800E7E70C48E5E74FF40040E2E74FF080421A
:102388001368C3F30323D8401368C3F34213E3E786
:102398004FF080421368C3F30323D8401368C3F394
:1023A800C233D9E700366E01006CDC0280EE3600DD
:1023B8000048E8014FF08043986800F4C030704747
:1023C8004FF08043986800F4C04070474FF0804356
:1023D800986800F4C05070474FF08043986800F444
:1023E800C060704741284AD8DFE810F036022C0256
:1023F80022020302F101D2017C01720168015E012F
:1024080054014A01400118010E01DB00EF00E5000C
:10241800D1004900C700BD00B300A8009E00940089
:102428008A006B00610057004D00420022012C0118
:10243800360149004900490049004900490049005E
:1024480049004900490049004900490053024A022D
:1024580040025D02A70149004900490049004900BE
:1024680049004900490049004900490067027102D2
:102478004FF08043DA6819B142F48012DA6070478D
:1024880022F48012FAE74FF08043DA6811B142F47F
:102498000022F3E722F40022F0E74FF08043DA68E5
:1024A80011B142F48022E9E722F48022E6E74FF0F6
:1024B8008043DA6811B142F40032DFE722F40032D7
:1024C800DCE74FF08043DA68A1B142F48032DA6089
:1024D8004FF080439A6A02F03F023F2AFAD15A69C4
:1024E80059B142F004025A614FF08042936A590789
:1024F800FCD5704722F48032E9E722F00402F2E7C3
:102508004FF08043DA6811B142F40042B6E722F492
:102518000042B3E74FF08043DA6811B142F48042D9
:10252800ACE722F48042A9E74FF08043DA6811B1A2
:1025380042F40052A2E722F400529FE74FF0804392
:102548001A6919B142F020021A61704722F020027C
:10255800FAE74FF08043DA6811B142F480528DE710
:1025680022F480528AE74FF08043DA6811B142F4CE
:10257800006283E722F4006280E74FF08043DA6864
:1025880011B142F4806279E722F4806276E74FF075
:102598008043DA6811B142F480726FE722F48072E6
:1025A8006CE74FF08043DA6811B142F0200265E72A
:1025B80022F0200262E74FF08043DA6811B142F05E
:1025C80080025BE722F0800258E74FF08043DA6828
:1025D800A1B142F04002DA604FF080439A6A02F0FB
:1025E8003F023F2AFAD15A6959B142F008025A61AA
:1025F8004FF08042936A1B07FCD5704722F04002D7
:10260800E9E722F00802F2E74FF08043DA6811B1F7
:1026180042F0100232E722F010022FE74FF0804319
:10262800DA6811B142F0007228E722F0007225E75B
:102638004FF08043DA6811B142F080721EE722F051
:1026480080721BE74FF08043DA6811B142F4000250
:1026580014E722F4000211E74FF08043DA6811B161
:1026680042F480020AE722F4800207E74FF0804331
:10267800DA6811B142F0080200E722F00802FDE62C
:102688004FF08043DA6811B142F00402F6E622F016
:102698000402F3E64FF08043DA6811B142F0020217
:1026A800ECE622F00202E9E64FF08043DA6811B165
:1026B80042F00102E2E622F00102DFE64FF0804339
:1026C800DA6811B142F00062D8E622F00062D5E67D
:1026D8004FF08043DA6811B142F08062CEE622F012
:1026E8008062CBE64FF080431A69A1B142F40072D0
:1026F8001A619A6A02F03F023F2AFAD15A6942F0F7
:1027080010025A614FF080439A6AD006FCD51A69C4
:1027180042F0100218E722F010021A619A6A02F0D9
:102728003F023F2AFAD15A6922F010025A614FF04B
:102738008042936AD906FCD570474FF080431A69E6
:10274800A1B142F480521A619A6A02F03F023F2A0C
:10275800FAD15A6942F020025A614FF080439A6ACE
:102768009206FCD51A6942F40062EDE622F4006292
:102778001A619A6A02F03F023F2AFAD15A6922F096
:1027880020025A614FF08042936A9806FCD5704740
:102798004FF080431A69A1B142F008021A614FF064
:1027A80080439A6A02F03F023F2AFAD15A6959B126
:1027B80042F001025A614FF08042936AD907FCD572
:1027C800704722F00802E9E722F00102F2E74FF031
:1027D80080431A6931B142F004021A611A6942F061
:1027E8004002B1E622F004021A611A6922F040029E
:1027F800AAE64FF080431A69A1B142F002021A61B9
:102808004FF080439A6A02F03F023F2AFAD15A6990
:1028180059B142F002025A614FF08042936A9B0715
:10282800FCD5704722F00202E9E722F00202F2E743
:102838004FF08043DA6811B142F080521EE622F070
:1028480080521BE64FF080431A6911B142F0010231
:102858007AE622F0010277E64FF080431A6911B157
:1028680042F0800270E622F080026DE64FF080436D
:102878001A6911B142F4807266E622F4807263E646
:102888004FF08043DA6809B11A43F7E522F0804235
:10289800F4E54FF08043DA6811B142F00052EDE5FB
:1028A80022F00052EAE54FF080431A6911B142F470
:1028B800806249E622F4806246E64FF08043DA6897
:1028C80011B142F40012D9E522F40012D6E54FF016
:1028D8008043DA6811B142F00042CFE522F00042AD
:1028E800CCE5000010B50C4605280ED8DFE800F04E
:1028F80003151F28345F374A3749936934B123F0E9
:10290800200393618B685B07FCD510BD43F020035F
:1029180093618B685C07FCD4F7E72E4A936819B17A
:1029280023F400439360F0E743F40043FAE7294AAD
:10293800936811B123F4C043F4E743F4C043F1E7CB
:10294800244A936923F0180319B143F008039361EB
:10295800DBE743F01003FAE701210E20FFF742FD01
:102968001E4BD3F80421CCB190060BD4D3F8042124
:1029780042F02002C3F80421D3F8042122F0800297
:10298800C3F80421D3F8042142F00402C3F8042157
:10299800124AD2F808319907FBD5B6E722F00402AB
:1029A800C3F80421D3F808219207FBD4ADE7094AFC
:1029B8000949936934B123F0400393618B68002B74
:1029C800FCDAA2E743F0400393618B68002BFCDB41
:1029D8009BE700BF0080004000820040009000405C
:1029E8003F280DD82F2811D9A0F130020123934098
:1029F8004FF0804229B9D1690B43D361342823D0E1
:102A08007047D16921EA0303D3617047A0F120031D
:102A1800022B8CBF02460D22012393404FF08042C7
:102A280039B99169102843EA0103936106D91B2833
:102A3800E5E7916921EA0303936170470228DFD92A
:102A4800034BC340DB07DBD55C20FFF727BB00BF88
:102A58006800010008B500210320FFF7C3FC01212D
:102A68000320FFF7BDFFBDE8084000210320FFF762
:102A7800B7BF0000034940F6FF52CB6A32EA0303AE
:102A8800FBD1704700E0004008B5FFF7F3FF054BA6
:102A98001A6818B142F080521A6008BD22F08052BC
:102AA800FAE700BF00E0004008B5FFF7E3FF054B79
:102AB8001A6818B142F080721A6008BD22F080725C
:102AC800FAE700BF00E00040012808B50AD8FFF780
:102AD800D1FF054B1A6801280CBF42F0007222F0A2
:102AE80000721A6008BD00BF00E0004070B5002801
:102AF8005AD02E4C616B8EB2626C636C9342FBD1E0
:102B0800A56CA36CAB42FBD1656BADB2AE42F1D103
:102B1800002EEFD089B207EE901AC2F3021102F02C
:102B28000F0401EB810104EB4101C171C2F3C22121
:102B3800C2F3C31401EB810104EB41018171C2F3BB
:102B4800814101EB8101C2F3833202EB4102427100
:102B5800C3F3011203F00F0102EB820201EB420200
:102B6800F8EEE77ADFED126A0271C3F38022C3F34D
:102B78008311B6EE007A02EB820201EB4202A7EE65
:102B8800A67AC270C3F3C2228270C3F3834202EBF7
:102B98008202C3F38333BCEEC77A03EB420303F527
:102BA800FA6380ED027A038070BD00BF00E0004048
:102BB8000024F441202810B50C4611D8032808D861
:102BC800431E012B0BD8FFF755FF44B9064BD861BC
:102BD80005E0064B021FD2B2D340DB07F3D410BD89
:102BE8004028FCD1EFE700BF00E0004011100010C2
:102BF800202810B5044615D803280BD8431E012BEE
:102C080012D8FFF737FF094BDB699C430CBF012043
:102C1800002006E0021F064BD2B2D34013F0010099
:102C2800EFD110BD4028ECD00020FAE700E00040CA
:102C380011100010202814D803280BD8431E012B8C
:102C480013D8012911D8094B9A6A0CBF0243824351
:102C58009A620AE0064B021FD2B2D340DB07F0D4D7
:102C680070474028EDD08028EBD0704700E0004046
:102C78001110001008B518B1FFF7FCFE014B986160
:102C880008BD00BF00E0004083699B06FCD40160DA
:102C980070474FF4E1330360602383804FF0407244
:102CA80000238371826003737047036B19B143F08B
:102CB80001030363704723F00103FAE738B5036B98
:102CC80023F001030363C36A23F01003C3620023E4
:102CD8008363484B984204460D464AD1FFF76AFB86
:102CE800C00B013802285CD8434B53F820002B68EE
:102CF800B0EB031F4FEA031178D36BB1B0FBF1F2CD
:102D080001FB1200C000B0FBF3F000F0010303EB7D
:102D180050039BB243EA02431A0C03F03F0362627A
:102D2800A362E36A2A7923F060031343E362E36A48
:102D3800AA7923F008031343E3622B7B002B3CD0D2
:102D4800E36A43F01003E3626B79012B39D0022B5D
:102D580040D0002B46D0236B6A8923F44073134379
:102D68002363236B2A8923F44043134323630020FE
:102D780038BDB0F1402F04D1FFF722FBC0F34F302C
:102D8800AFE71E4B984204D1FFF720FBC0F3CF20DA
:102D9800A7E71B4B98420ED1FFF71EFBC0F34F204D
:102DA8009FE7144B9C4202D0B4F1402F03D102207C
:102DB800FFF7B0FA9BE70320FAE7E36A23F0100372
:102DC800C1E7E36A43F00203E362E36A23F0040322
:102DD800E362C0E7E36A43F00203E362E36A43F0B5
:102DE8000403F5E7E36A23F00203F1E74FF0FF304D
:102DF800BEE700BF0030004010910008000001400D
:102E080000100140FFF766B910B501F001FC044657
:102E180001F090FC064B1B68011B241A03B910BD76
:102E28001A688A428CBF121900221A605B69F5E79A
:102E3800B0000020054A13680BB1002159724361A4
:102E4800012310604372006801F09EBBB0000020AF
:102E580073B502AB03E9030001F0E0FBBDF90430F0
:102E6800009D064C4FF47A76DA17E5FB06321B1AFA
:102E780062EB0102C4E9023202B070BDB00000206A
:102E88000023C0E90033C0E903130381436170479D
:102E980070B5044601F08FFC6CB11A4E32681346C7
:102EA8006BB9636823600123238162B901F042FC96
:102EB8002046FFF7BFFFBDE8704001F07EBC9C4292
:102EC800F9D05B69ECE701F041FC22683368024401
:102ED800226019688A42054605D2FFF795FF2368E4
:102EE8005B1B2360E4E75969586910B95C6160614C
:102EF800E1E70868824202D90B464969F4E75C6158
:102F08006161D8E7B000002070B51B4CFFF77CFF6B
:102F1800236843B15A69226000221A72DA6802B93A
:102F2800FEE718699047002523683BB9FFF76CFF57
:102F38002368B3B970BD18699047F5E71E6801F0BA
:102F480005FC864275EB010103D323681B68002B3F
:102F5800ECD123685A692260DA681D72002AEAD126
:102F6800FEE75A7A002AE5D10122BDE870401868C8
:102F78005A7201F009BB00BFB000002038B5154DEA
:102F8800044601F018FC2B6803B11CB9BDE83840B1
:102F980001F013BC0022A342227212D1597A5C6953
:102FA80069B15A724CB12C60FFF72EFF2B680122D1
:102FB80018685A7201F0E8FAE8E701F01FFB2C6084
:102FC800E4E71A465B69002BE0D09C42F9D16369BB
:102FD8005361DBE7B000002038B504460D46FFF723
:102FE800CDFFC4E9005538BD08B501F017FB034A09
:102FF800D2E90232C01842EB010108BDB00000203E
:1030080010B50446FFF7F0FF4FF47A720023FDF77E
:10301800F3FD2060A280204610BD38B504460D4659
:10302800FFF7E2FF001B61EB050138BD064A137C80
:10303800042B04D8137C0133DBB2137470470023CC
:10304800137401F08FBB00BFB000002010B5102230
:1030580004460021043001F08EFD0023236010BDDA
:10306800002308461A461021FDF732B82DE9FF4122
:10307800036804460E4615462BB3C3F11008904565
:10308800474600F1140028BF17461844BAB201F0A9
:103098005EFD23683B440F2B236020D9A8451ED230
:1030A800E31C04F1130113F8012F187C8B4282EA08
:1030B80000021A70F7D1231D002210211846FDF7CF
:1030C8008FF83E44ED1B04F11308271D102D09D875
:1030D800AAB2314604F1140001F039FD256004B0AC
:1030E800BDE8F081E31C711E13F8012F11F8010FE0
:1030F800434582EA00021A70F6D110223946684622
:1031080001F025FD6B46002210216846FDF768F89E
:1031180010226946384601F01AFD1036103DD5E7F1
:10312800F0B589B0102205460C466846002101F02A
:1031380022FD6B46002210216846FDF751F89DF9E3
:103148000030002B6A464FF0000142DA137812F87B
:10315800010F01315B0043EAD0130F2902F8013C4B
:10316800F4D19DF80F305B0083F087032068DBB251
:1031780010288DF80F303BD104F11303694604F190
:10318800230013F8016F11F8012B984282EA060216
:103198001A70F6D1E31C04F1130113F8012F187CFF
:1031A8008B4282EA00021A70F7D110220DEB02005E
:1031B800211D01F0CCFC10212B460DEB0100002253
:1031C800FDF70EF810220021684601F0D4FC09B082
:1031D800F0BD137812F8010F01315B0043EAD013F8
:1031E8000F2902F8013CF4D19DF80F305B00BDE7D0
:1031F8009DF90030002B6A464FF0000132DA13784F
:1032080012F8016F01315B0043EAD6130F2902F867
:10321800013CF4D19DF80F20520082F08702471C30
:103228002318D2B2102FC0F10F068DF80F2088BFD7
:103238000026802215301A7500213246204405F0F8
:1032480077FC23463E4443F8136B694604F1230098
:1032580013F8016F11F8012B834282EA06021A70F3
:10326800F6D197E7137812F8016F01315B0043EA52
:10327800D6130F2902F8013CF4D19DF80F20520013
:10328800CDE7012070470000034B1B6813B15B6852
:1032980003B11847704700BFC4000020034B1B68E8
:1032A80013B1DB6803B11847704700BFC4000020A2
:1032B800002000F00DBE000038B5164C254645F834
:1032C800040B00F031FF002000F002FE012000F0A6
:1032D800ACFE0021084601F09FF80421002000F010
:1032E80073FF0023194618461A4600F0EFFE2846D9
:1032F8000949FFF7C5FD04F11C000849FFF7C0FDA7
:1033080004F134000649FFF7BBFD002084F84C00A7
:1033180038BD00BFC400002091320008A532000863
:103328009534000808B500F055FDC31EDBB2022B2A
:103338009ABFC0F10600C0B2002008BD00F008BF67
:1033480008B501F076F808BD01F070BB01F03ABB92
:1033580070B500230C4640F201211A46064608467D
:1033680000F0B4FE00F02AFF0C4D01280C480CBFF9
:1033780085F85F4085F8584000F0DEFF214630466A
:10338800002200F0D1FDD5F88C100648FFF724FE86
:10339800BDE870400348FFF77BBD00BFC4000020B4
:1033A80014010020C800002008B54FF0040000F008
:1033B8007DFDBDE808400220FFF724BD00F0F0BD08
:1033C80037B5184B93F888500F2805F10D05EDB265
:1033D80022D8072822D8032822D8012894BF0024FD
:1033E800012400234FF4C0711A46084600F06EFE0F
:1033F800002300930A222946204600F0EFFF00F040
:10340800EBFD09484FF4FA61FFF7E6FD064803B003
:10341800BDE83040FFF73CBD0424E2E70324E0E7C1
:103428000224DEE7C4000020F800002010B50C4696
:103438002DED028B08EE102A00F08AFE204601F0DE
:1034480049FB00F0D5FDDFED0A7A0A4CB8EEC88AD0
:10345800204628EE278AFCEEC87A17EE901AFFF766
:10346800BBFDBDEC028B2046BDE81040FFF710BD48
:1034780000007A44E000002001F080BA01F0AEBA02
:1034880008B501F0E7F9033008BD000010B50020C9
:1034980000F0A6FC044B1B682BB19B691BB1BDE86F
:1034A80010400020184710BDC400002010B590B18E
:1034B8000A4B012219461C68A04206D39C68A04208
:1034C80003D201EBC201087910BD0132162A03F1BB
:1034D8000803F0D1FEE71F20F6E700BF209100089F
:1034E8000128094806D1094B80F85F10197050303F
:1034F80000F022BF90F85730012B04D1034B80F81D
:1035080058101970F3E77047C4000020200000200D
:10351800002340F2422110B51A460446084600F03E
:10352800D5FD34B10A482146FFF756FD0848FFF794
:10353800AFFC084B93F890202AB16FF07F40BDE8AC
:10354800104000F0FBBCD3F894008001F7E700BFFF
:10355800E0000020C40000200023022110B51A4614
:103568000446084600F0B2FD34B10A482146FFF788
:1035780033FD0848FFF78CFC074B93F890202AB1DD
:103588006FF07F40BDE8104000F0EEBCD3F8940027
:103598008001F7E7E0000020C400002037B5574C51
:1035A80094F84C30002B00F0A68001F004F90023B9
:1035B80084F84C3001F001F9B4F89830D9070AD5ED
:1035C800201DFFF7DBFC012000F00AFC236813B183
:1035D8001B6803B19847B4F898309A0732D5484821
:1035E800FFF7CCFC94F8905095B9012000F0F8FB57
:1035F800294640F6021001F0E5F940F6441001F0C2
:1036080015FA40F00201C9B240F6441001F0DAF9A7
:10361800FF220DF107013B4800F03CFF3A4800F05B
:103628004FFF236873B19D6865B1B4F898305B06A5
:1036380008D494F9A93194F9A8219DF807103148C4
:103648001A44A847B4F8983058060AD594F8903028
:1036580013B9012000F0C4FB236813B11B6903B13F
:103668009847B4F8983019060ED52848FFF786FC15
:10367800012000F0B5FB236833B19B69B4F89800CA
:1036880013B1C0F300209847B4F898309A050ED5C6
:1036980000F0A0FB04281FD11D48FFF76FFC012094
:1036A80000F09EFB236813B15B6803B19847B4F838
:1036B80098309B061FD51248FFF760FC94F89030AD
:1036C80013B9012000F08CFB2368A3B1DB6893B128
:1036D80003B0BDE83040184700F07CFB0528E6D170
:1036E8000748FFF74BFC012000F07AFB2368002B0A
:1036F800DDD0DB68D9E703B030BD00BFC4000020CF
:10370800E00000205E01002060020020F800002098
:10371800C80000200E4B10B5044683F8B00183F8AA
:10372800B10100F017F85CB134214FF4E86001F002
:1037380049F94421BDE8104040F2417001F042B916
:1037480014214FF4E86001F03DF92421F2E700BFAD
:10375800C400002008B5012000F020FD064B93F8B6
:10376800B00193F8B121824205D083F8B101BDE8D8
:103778000840FFF7CFBF08BDC4000020012808B5E6
:1037880007D0002000F00AFD044B002283F8B12185
:1037980008BDBDE80840FFF7DDBF00BFC40000203A
:1037A80070B50D4616461C46FFF7E8FF284600F0A0
:1037B800CFFC0020FFF7ACFE0120FFF723FBFFF74B
:1037C80013FC054628460021FFF727FCA04271F1AB
:1037D800000104D30124FFF7E7FD204670BD00F087
:1037E80028FE8642EEDA0024F5E738B5FFF7B2FF87
:1037F800002000F0A3FB002425460120FFF702FB70
:1038080000F017FE00F00103A3400134202C45EA24
:103818000305F2D101F074F90544FFF7C5FD284608
:1038280038BD00000A2838B50DD8084B03EBC00393
:10383800D3E92C4501208840FCF792FE22462B460E
:10384800FDF722F838BD00240025F3E72091000891
:103858002DE9F04F87B015469DF8542002929DF847
:1038680064209DF84C70BDF848807B4CDFF80492CA
:103878000393002A18BF4FF00008002F9DF850301E
:10388800BDF8446084F8902008BFFF238A4689F871
:103898000030834620B101286CD007B0BDE8F08F16
:1038A80000F0ABFB0B22504684F8842084F878B0F3
:1038B800E567FFF7FBFD99F8003084F85830029B64
:1038C80084F88500002B0CBF0123F22341F6040283
:1038D800F60087F0010784F859300123A4F8542032
:1038E80084F85A30A4F8526084F8577084F850B0BD
:1038F80084F856B0FFF7DCFC94F87800003818BF5D
:103908000120FFF73BFF04F1780000F0BDFC04F153
:10391800500000F011FD514AD2F80801D2F80C11FC
:1039280004AB03C304A800F078FA40F2FF1000F0DB
:10393800A1FA2846FCF704FE02460B460020484937
:10394800FCF7A2FF474B0022FCF774FE06464046F0
:103958000F46FCF705FE02460B4630463946FCF793
:1039680069FE414B0022FCF765FEFDF725F9C4F816
:10397800940092E7002000F040FB5FFA88F000F026
:1039880048FB364A84F878B052445FFA85F892F8D2
:10399800103184F888800193BAF1000F3DD10B3DB6
:1039A800012D3FD8A8F10508B8F1010F02D80C2E57
:1039B80038BF0C26019B84F88930039B84F88A3031
:1039C800012384F8503099F8003084F85F30029B66
:1039D80084F860309DF8603084F8613084F88BB0EA
:1039E800A4F85C6084F85E70FFF7B4FE1F4800F02E
:1039F8004BFC1F4800F0A0FC94F86130012B40F20A
:103A080036701ED101F012F800F0FB0140F236705A
:103A180000F0D8FF4FF6FF70A9E7BAF1010F01D106
:103A28000C2DBFD001984146FFF7FCFE08A3D3E94F
:103A38000023FDF785F8B0F1000B18BF4FF0010B1C
:103A4800B0E700F0F3FF40F00401C9B2DEE700BFC1
:103A5800000000A047613040C40000202091000809
:103A68000000F03F0000204000408F403C01002053
:103A780014010020200000202DE9F74F8946BDF8E9
:103A880038600C999DF83C809DF840A05E4C174624
:103A9800054648B101284DD040F6890000F0C6FF20
:103AA80040F00401C9B28CE00B2284F87800184673
:103AB800E16784F88420FFF7F9FC41F60403BAF1C2
:103AC800000FA4F854300CBF0123F22384F85930B6
:103AD800F600012388F0010884F85A3084F885003C
:103AE800C4F8807084F85050A4F8526084F8565096
:103AF80084F85780FFF7DCFB94F87800003818BF8B
:103B08000120FFF73BFE04F1780000F0BDFB04F153
:103B1800500000F011FC3D4AD2F80801D2F80C110F
:103B28006B4603C3684600F078F940F2FF1000F0D6
:103B3800A1F9B1E7354A84F878001A44CFB292F86F
:103B480010B184F88870002B48D10B39012949D865
:103B5800053F012F02D80C2E38BF0C269DF83430B3
:103B680084F88A30012384F85030294B84F889B0CE
:103B78001B7884F85F309DF84C3084F8613084F805
:103B88008B50A4F85C6084F85E8084F860A0FFF72E
:103B98008FFB94F87800003818BF0120FFF7EEFD7E
:103BA8001C4800F071FB1C4800F0C6FB94F88930F3
:103BB800062B7FF471AF40F6890000F037FF00F064
:103BC800FB0140F6890000F0FDFE484600F082FF48
:103BD800149BC4F88C3003B0BDE8F08F012B01D1E1
:103BE8000C29B5D039465846FFF71CFE04A3D3E983
:103BF8000023FCF7A5FF051E18BF0125A8E700BF95
:103C0800000000A047613040C40000202091000857
:103C1800200000203C0100201401002000000000CA
:103C28002DE9F84F884620B1012840D00020BDE892
:103C3800F88F5B4ADFED5B6A92F85510B2F85230A4
:103C480003EBD10307EE903A92F85730F8EEE77A93
:103C5800002BB7EE007A08BFB0EE667A77EE877A67
:103C680007EE108A92F85930B8EEC77A022B77EE31
:103C7800877AB0EE007A08BFF0EE476A77EEA67A48
:103C8800B2EE007A67EE877A92ED1F7AB8EE477A3D
:103C9800C7EE876ADFED447A66EEA77A17EE900AD8
:103CA800FCF770FC05F01CF9FCF786FFBFE7DFF8AE
:103CB800F0A09AF888B09AF889005946FFF7B2FD43
:103CC800BAF85C3007EE903AF8EEE77AB1EE017A8E
:103CD80077EE877A04460D4617EE900AFCF752FCF9
:103CE80022462B46FCF7A6FCCBEB48089AF8603036
:103CF80008F1070808EB83089AF85E30012B06469E
:103D080014BF00201420C0EB88000F46FCF728FCE5
:103D18009AF88B30003B18BF01238046ABEB430079
:103D280080008946FCF71CFC02460B464046494683
:103D3800FCF7AAFD04F0D4FF80469AF88A0000F048
:103D4800030089460430FCF70BFC42464B46FCF75F
:103D580071FC0022002380468946FCF7FBFE18B957
:103D68004FF000084FF00009104B0022404649462A
:103D7800FCF7AAFA22462B46FCF75CFC32463B4687
:103D8800FCF7A2FA04A3D3E90023FCF79DFA05F097
:103D980023F889E7AFF30080000000E0CEF7EF3F9B
:103DA800C40000200000000000007A440000204009
:103DB80010B5074C012384F84C3000F09CF9A4F8A6
:103DC8009800BDE810404FF6FF7000F0B9BB00BF87
:103DD800C4000020014B1878704700BF780200200B
:103DE800014B1870704700BF7802002008B5074BD8
:103DF8001A7812B11B78062B03D100F063FD00F08E
:103E08006FFEBDE8084000F051BD00BF78020020F9
:103E18000A460146002000F015BE08B501460822F2
:103E28004FF4D86000F0AAFD002008BD07B5074B85
:103E38005B7840BAADF804002BB9022201A940F220
:103E4800BC6000F09BFD03B05DF804FB7802002025
:103E580007B5074B5B7840BAADF804002BB90222CE
:103E680001A940F2BE6000F089FD03B05DF804FBD3
:103E78007802002010B50C4B5B7804469BB94FF4D0
:103E8800D76000F0D3FDC4F3002100F0FE00014329
:103E98004FF4D76000F096FDE1B240F2B960BDE89A
:103EA800104000F08FBD10BD7802002007B58DF8D6
:103EB800040000F01DFE012201A9842000F01AFD73
:103EC800024B00221A7003B05DF804FB7802002050
:103ED80007B501228DF807000DF10701802000F0D9
:103EE80009FD9DF80720044B22B901221A7003B07E
:103EF8005DF804FB0222F9E77802002007B5094BB8
:103F08008DF8060004221A70030C8DF80430032281
:103F1800030A01A983208DF8053000F0EBFC03B0FB
:103F28005DF804FB7802002010B51446FFF770FF17
:103F38002046BDE81040FFF7E1BF000007B5094B78
:103F48008DF8060005221A70030C8DF80430032240
:103F5800030A01A982208DF8053000F0CBFC03B0DC
:103F68005DF804FB7802002013B50C4B04460522CB
:103F7800962140F6AC001A7000F024FD230C8DF851
:103F880004300322230A01A982208DF805308DF818
:103F9800064000F0AFFC02B010BD00BF7802002060
:103FA80007B5030C8DF80030030A8DF801300B0CAF
:103FB80049BA8DF80200ADF804100622694694202B
:103FC8008DF8033000F096FC024B06221A7003B0FD
:103FD8005DF804FB78020020002208B51146C520D0
:103FE80000F088FC014B07221A7008BD78020020F7
:103FF80000221146D12000F07DBC07B501228DF8C2
:1040080007000DF107019F2000F074FC03B05DF874
:1040180004FB07B501228DF807000DF10701A02068
:1040280000F068FC03B05DF804FB07B501228DF8C9
:1040380007000DF10701962000F05CFC03B05DF865
:1040480004FB0000134B984207B50BD94EF6E11359
:10405800ADF80430022201A9982000F04BFC03B00F
:104068005DF804FB0C4B984202D94DF6D703EFE7F5
:104078000A4B984202D94CF2C153E9E7084B9842DF
:1040880002D948F27513E3E7064B9842E2D946F69F
:104098006B73DDE700E9A43580F8A9328044E52D8B
:1040A800000B6B1B40FC541907B58DF80620042241
:1040B8008DF804008DF8051095200DEB02018DF8A0
:1040C800073000F017FC03B05DF804FB07B552BADF
:1040D800ADF8042040BA082249BAADF80000ADF89E
:1040E80002105BBA69461046ADF8063000F002FCD3
:1040F80003B05DF804FB07B5022201A9122000F005
:104108001BFCBDF8040040BA80B203B05DF804FBA4
:1041180007B501228DF807000DF107019D2000F079
:10412800E9FB03B05DF804FB08B500F055FB00F0AF
:1041380093FB00F0C7FB0020FFF7CAFE0120FFF742
:10414800E7FF024B01221A7008BD00BF7802002069
:1041580037B5114DAB7804461BB9FFF773FF012340
:10416800AB702046FCF7ECF909A3D3E90023FCF770
:104178008BFBFCF721FD042200BA01900DEB020134
:10418800862000F0B7FB03B030BD00BFAFF300805E
:10419800000000008084EE3F7802002007B5064B3F
:1041A8008DF80700587001220DF107018A2000F0F0
:1041B800A1FB03B05DF804FB78020020014B58789E
:1041C800704700BF7802002037B5044600200D462E
:1041D80000F083FC0128034621D10F2C02464FF042
:1041E80000010CBF06200420FFF75EFF6FF00203FA
:1041F800A342B8BF23460E2BA8BF0E231C46182186
:1042080040F6E70000F0DEFB022201A98E208DF8BF
:1042180004408DF8055000F06DFB03B030BD40F64A
:10422800D80000F003FC40F01E01C9B240F6D800E7
:1042380000F0C8FB124B1878022818D0032806D0C3
:10424800012818D0012300220721042003E00221BD
:10425800012300220846FFF727FF6FF002039C4264
:10426800B8BF1C46162CA8BF16243821C8E701235E
:1042780000220321EFE70346002205210320EAE795
:104288009D0200200000000013B50023CDE9003393
:10429800274B04465B780078834201D0FFF77EFF06
:1042A80023781BB1012B35D002B010BD6068FCF734
:1042B80047F902460B461AA1D1E90001FCF7E4FAD6
:1042C80000221C4BFCF7B6F9FCF776FC030C8DF8C2
:1042D8000030030A8DF80130237B8DF802008DF839
:1042E8000330A068637B8DF80430FCF729F90EA32E
:1042F800D3E90023FCF7C8FAFCF75EFC030C40BACC
:104308008DF80530ADF80600082269468B2000F0CC
:10431800F1FAC9E7236900930422F6E7AFF30080B6
:104328000000000080847E41000000008084EE3F91
:1043380078020020000040401FB50023CDE901337A
:104348008DF80C30244B04465B780078834201D00A
:10435800FFF724FF23781BB1012B31D004B010BD27
:10436800637AF12B20D14FF6FF70FFF75FFD48F21B
:104378000500FFF76DFD02236288A188ADF80610DD
:1043880052BAE188ADF804208DF80B30227AA37A6E
:104398008DF80A20ADF808108DF80C30092201A913
:1043A8008C2000F0A7FAD9E7F22BE5D141F60F509F
:1043B800FFF73CFD41F22100FFF74AFD0623DBE74A
:1043C800A3895BBAADF80430E389ADF80630238AD7
:1043D800ADF808300622E2E77802002013B5049C05
:1043E8008DF80330230C8DF800008DF801108DF83E
:1043F80002208DF804300522230A694688208DF8AA
:1044080005308DF8064000F075FA024B07221A7045
:1044180002B010BD7802002007B502228DF8040012
:104428008DF805108F2001A900F064FA03B05DF83B
:1044380004FB07B5012201A9152000F07DFA9DF8BB
:1044480004004042401003B05DF804FB37B5054650
:104458000C46022201A9132000F06EFA0C4B5B787F
:10446800012B11D140F2047000F0E0FAC0F3C7103C
:10447800012809D140F2027000F0D8FA9DF8053001
:104488002870237003B030BD9DF80400F6E700BF24
:104498007802002073B50C4605460DF10701204649
:1044A8001646FFF7D3FF2278B24207D89DF80700D7
:1044B800294600F0E9FA002002B070BD0120FBE7B0
:1044C80013B50322044601A9142000F035FA1B494C
:1044D8004A7822704AB1012A17D013220021601CA1
:1044E80004F026FB0F2323700DE09DF804302371A0
:1044F8009DF80530A2605B425B10A3719DF8063001
:104508005B425B10637102B010BD9DF804309DF9E9
:1045180005205B425B1023739DF80530002AB6BF67
:10452800A3F580739B089B1063739DF806305B426C
:104538005B10A3734B682361E5E700BF7802002096
:1045480007B5022240BAADF8040001A9104600F0F0
:10455800D1F903B05DF804FB10B5094C23786BB9A9
:10456800FEF778FA01210320FDF73CFF0120FEF752
:104578008BFA044B02221A600123237010BD00BF7E
:104588008002002000E100E030B587B003AC0546AA
:104598002046FEF7ABFA94E80700154C6B4683E813
:1045A800070084E807000020FEF77EFA052D28465C
:1045B80038BF0520FBF7C4FF0E4B0022FCF73AF882
:1045C8000D4B0022FCF760F904F01CFD04F02AF9F9
:1045D800FEF750FB0120FEF777FA0120FEF764FA98
:1045E8000121102007B0BDE83040FEF723BB00BF13
:1045F800840200200000E04000408F4008B5002001
:10460800FEF752FABDE8084000211020FEF712BB61
:10461800014BD3E904017047800200202DE9F04FD7
:1046280085B001A8FEF762FABDF804109DF807E00E
:104638009DF808509DF809009DF80A709DF80B60D8
:10464800039CDFF8E090DFF8E0A04FF0000C634631
:104658006246A1F5FA6B0FFA8CF8D84517DB11F012
:1046680003010EF1FF3E22D0DFF8C080DFF8B090E2
:104678004FF0000CF44520DA18F8011B09FB01F192
:10468800C9180B4642F100020CF1010CF2E7B8F12F
:10469800000F02D018F0030F06D113EB090342F103
:1046A80000020CF1010CD6E713EB0A03F7E7DFF879
:1046B8008080DFF86C90714526DB4FF461614FF024
:1046C8003C0CA7FB0C7CA0FB0101C01941EB0C01C1
:1046D8008019134E05F1FF3506FB05F541F1000180
:1046E800401941F10001C0184FF47A7342EB0102FE
:1046F800A0FB030103FB0211B4FBF3F4001941F121
:10470800000105B0BDE8F08F18F801CB09FB0CFCDF
:104718001CEB030C634642F100020131CBE700BFFA
:10472800805101000085E2018033E101A892000870
:10473800B492000838B5FFF771FF034B04460D46E5
:10474800C3E9044538BD00BF8002002008B5FFF763
:1047580065FF034AD2E90432C01A61EB020108BDC1
:104768008002002008B5064B5B68984730B9FEF711
:1047780081F9BDE808400320FDF7C8BD08BD00BFAA
:104788003C92000808B51020FEF732FA90B10020DC
:10479800FEF78AF900211020FEF74CFA00211020BC
:1047A800FEF708FAFEF7B0FBBDE80840012110202B
:1047B800FEF740BA08BD72B6704762B6704700008F
:1047C800044B9860DA6802F01102012AFAD198685D
:1047D800C0B270470090004010B500210E20FDF7D0
:1047E80001FE01210E20FEF7FBF800210E20FEF746
:1047F800F7F8154C01210E20FDF7F4FD4FF4007376
:10480800C4F800310723236002232361D4F804315C
:10481800802B0BD01420FDF741FC0023C4F80C3189
:104828006E20FDF73BFC0123C4F80C31064B07480A
:1048380002225A60064B4FF400121A60BDE810407D
:1048480003220B21FDF7DCBC0090004000FC014076
:1048580000E100E00520704710B5134CD4F804318E
:1048680023F02003C4F804316420FDF717FCD4F8C2
:10487800043143F02003C4F80431D4F8043123F0A0
:104888008003C4F80431D4F8003143F02003C4F89D
:104898000031D4F8043143F00103C4F80431D4F8EA
:1048A8000831DB05FBD410BD0090004008B50A2094
:1048B800FDF7F4FB024AD2F80831DB05FBD408BD4A
:1048C8000090004038B572B6094C0025C4F80C5168
:1048D8001420FDF7E3FBC020FFF772FF2846FFF71F
:1048E8006FFF0123C4F80C31FFF7E0FF62B638BD53
:1048F80000900040F8B50F4F154606460C46FFF7E6
:1049080075FA0023C7F80C313046FFF759FF2544E4
:10491800AC4208D10123842EC7F80C3108D0BDE879
:10492800F840FFF7C3BF14F8010BFFF749FFEFE7A3
:10493800F8BD00BF00900040F8B50F4F15460C4673
:104948000646FFF753FA0021C7F80C113046FFF767
:1049580037FF0846FFF734FF2544AC4206D1012350
:10496800C7F80C31BDE8F840FFF7A0BF0020FFF7FB
:1049780027FF04F8010BF0E700900040F8B5104F4E
:10498800154606460C46FFF731FA0023C7F80C31E6
:104998000D20FFF715FF300AFFF712FFF0B2FFF7FF
:1049A8000FFF2544AC4206D10123C7F80C31BDE8FE
:1049B800F840FFF77BBF14F8010BFFF701FFF1E7A1
:1049C8000090004007B501228DF807100DF107018E
:1049D800FFF7D4FF03B05DF804FB0000F8B5124FF1
:1049E800154606460C46FFF701FA0021C7F80C11D8
:1049F8001D20FFF7E5FE300AFFF7E2FEF0B2FFF7F1
:104A0800DFFE0846FFF7DCFE2544AC4206D1012351
:104A1800C7F80C31BDE8F840FFF748BF0020FFF7A2
:104A2800CFFE04F8010BF0E70090004007B5012223
:104A38000DF10701FFF7D2FF9DF8070003B05DF8FD
:104A480004FB0000F8B50F4F154606460C46FFF765
:104A5800CDF90023C7F80C310E20FFF7B1FE304620
:104A6800FFF7AEFE2544AC4206D10123C7F80C314E
:104A7800BDE8F840FFF71ABF14F8010BFFF7A0FED6
:104A8800F1E700BF00900040F8B5114F1546064603
:104A98000C46FFF7ABF90021C7F80C111E20FFF7F1
:104AA8008FFE3046FFF78CFE0846FFF789FE254447
:104AB800AC4206D10123C7F80C31BDE8F840FFF736
:104AC800F5BE0020FFF77CFE04F8010BF0E700BFFD
:104AD800009000400221FFF777BB022070470000DA
:104AE800024803220A21FDF7FBBA00BF00F001408B
:104AF800024804220A21FDF7F3BA00BF00F0014082
:104B0800074B08491A6843F2390001FB0200186094
:104B18006FF00043B0FBF3F3C3EBC373C01A7047E5
:104B2800240000206D4EC641014B1860704700BF3D
:104B38002400002038B505460C46FFF7E1FF611B4D
:104B4800013190FBF1F303FB1100284438BD013813
:104B58000A44914200D1704711F8013B00F8013F27
:104B6800F7E710440A44914200D1704711F8013B1D
:104B780000F8013DF7E703F0DBBF0000034B042218
:104B88001A701A7E42F010021A767047A0020020AE
:104B980038B55D4C637E0238C3F18003DBB211285F
:104BA80000F2AE80DFE800F009132B3341555C6555
:104BB8006DACAC73ACAC7E8B9AA4A27E9A4280F0AA
:104BC800A180531CA37622440223D3760DE0A27E53
:104BD800013B9A4280F29680A3180320D876931C52
:104BE800013254FA82F2A376D176012384F89B30FD
:104BF80094F89C300BB1FFF7C1FF002038BDA27EAE
:104C08009A427FD2531CA37622440423DDE7A27E76
:104C1800013B9A4276DAA3180520D876931C013214
:104C280054FA82F2A376D17610E0A07E023B984235
:104C380068DA23180625DD76431C54FA83F3D976FF
:104C4800C31C023054FA80F0A376C276FFF796FFB1
:104C5800CBE7A27E013B9A4254DAA3180720BDE7AE
:104C6800A27E9A424ED2531C2244A3760823D376BE
:104C7800ECE7A27E9A4245D2531CA376224409232C
:104C8800A3E7A27E9A423DD2A3180A20C5E794F969
:104C98001A20A37E002A35DB5A1CA27623440D2253
:104CA800DA76A2E7A37E7E2B2CD8E2181020D076E5
:104CB8009A1C013354FA83F3A276D97695E794F9CE
:104CC8001A20A37E002A1DDBE2181120D0769A1C38
:104CD800013354FA83F3A276D976B7E794F91A2008
:104CE800A37E002A0EDB5A1CA27623441222D7E7A1
:104CF80094F91A20A37E002A04DBE2181320E5E7C2
:104D080002207BE7012079E7A002002010B5214BA3
:104D180021480121017041708170A3F8B010B3F8E7
:104D2800F010A3F8B41093F8111183F8D510D3E953
:104D3800450103F1D80484E80300B3F81C11A3F873
:104D4800E0100022D3F82011C3F8E410C3E92822A8
:104D5800D3F82411C3F8E810D3F8301183F89D2054
:104D6800C3F8A82083F8AC2083F8AD2083F8AE20E0
:104D78009A765A7683F82C2183F89C2083F89B2016
:104D880021B983F8341183F8351110BD4A62896B53
:104D9800F6E700BFA00200202800002037B5114B1D
:104DA8008DF80110144693F8E0208DF8022093F84E
:104DB800EC200546093293F836018DF80020694643
:104DC80002F010FD83B22819834202D23CB19C4202
:104DD80005D8FF288CBF0020012003B030BD00207B
:104DE800FBE700BFA002002010B50D4C04F59C7035
:104DF800FEF7C4F894F82C3143B1012384F8AD30A0
:104E0800D4F8503123F00403C4F8503194F85431E5
:104E1800022B02BF237E43F02003237610BD00BF80
:104E2800A002002010B5114CD4F8503143F04003D3
:104E3800C4F8503194F82C3113B10020FFF7D4FF97
:104E48000B48FEF79BF80B48FEF798F8237E0A48B4
:104E580023F0220343F0220301212376FEF7BCF856
:104E6800BDE810400448FEF713B800BFA0020020B8
:104E7800F803002010040020280400202DE9F04742
:104E880088B006469DF840900C4617469846BC42A6
:104E980002D308B0BDE8F087335D651C023BEDB274
:104EA800112BF6D801A252F823F000BFFD4E0008DE
:104EB800274F0008D54F0008F74F00086350000837
:104EC8007D500008D1500008FD50000851510008DD
:104ED8009B4E00089B4E00089D5100089B4E000801
:104EE8009B4E00084D5200085D5200089152000880
:104EF800AD520008012002F0EBFA70B10121002048
:104F080002F094FA725DA04BE51C0234E4B283F817
:104F1800B021325D83F8B121EDB22C46B7E700230A
:104F28003C1B8DF809308DF80A308DF80B308DF860
:104F38000C308DF818406B1E934C3344059394F84D
:104F4800C8318DF81A3094F8E0308DF8193094F89B
:104F5800B5308DF81B3094F8B4308DF81C3094F8C7
:104F6800D4308DF81D3003AB01930DF10B03009382
:104F780005A90DF10A0394F836010DF1090202F0B2
:104F880094FC00F00703072B01460BD19DF80B306A
:104F980084F8D4309DF8093084F8B5309DF80A308B
:104FA80084F8B43000244FF0050AE2B29DF80C30C2
:104FB800B3FBFAF0904203D8013B2B44DDB2ACE7D7
:104FC80000220320FFF7E4FD0134EEE7715D6E4A2D
:104FD80001238B4082F8AE100234A2F8B0300022D0
:104FE800E4B211460420FFF7D3FD254695E7735D2B
:104FF800C3F3021203F00F038DF81430E31CDBB285
:105008008DF81520F25C231DDBB2651DF35C0234BC
:10501800E4B21B0443EA0223325D5B4C134364226F
:10502800534305A994F83601069302F04EFC00F0AC
:105038000703072BEDB201460AD19DF8143084F816
:10504800DC30069BC4F8D8309DF8153084F8D5308C
:1050580000220520FFF79CFD5FE74B4BD3F8CC31CE
:1050680033B11B6823B19847014642460620F1E751
:10507800FF21FAE7735D8DF8103005AB0393E31C4D
:10508800DBB2A51DF25C231DDBB24FF0000AF35C16
:10509800CDF818A01B0443EA0223A21CD2B205349F
:1050A800B25CE4B21343642253430593335D8DF835
:1050B8001C30354B03A993F8360102F00DFCEDB214
:1050C800014652460720C5E7735D03F00F03012B25
:1050D8004FF47A7238BF012353432B4AC2F8C430C5
:1050E80003F57A730234C2F8C8300022E4B21146DC
:1050F800082078E7735D244DC3F340128DF815201E
:1051080095F83601C3F3001205A903F00F038DF8D3
:1051180014208DF8163002F0E6FB02340130E4B2B8
:105128003FF463AFBDF81430184AA5F8E0309DF895
:105138001630D35C07EE903AF8EE677A0022C5ED98
:10514800397A114609204EE7735D8DF81430E31C57
:10515800DBB2651DF25C231DDBB20234F35CE4B202
:105168001B0443EA0223325D13436422534306932C
:10517800054B05A993F8360102F0BCFBEDB20146D8
:1051880000220A2066E700BFA0020020C0920008A3
:1051980000007A400023ADF81230A31CDBB21FEDEB
:1051A800047AF25CE31CDBB205A816F803A0735D71
:1051B8004FEA0A4A4AEA022A4AEA030A231DDBB2EC
:1051C800A51D0534F35CE4B24AEA036A335D07EED1
:1051D800903AF8EEE77AEDB267EE877AFDEEE77A75
:1051E80017EE903A1CB2FDF70BFF3C493C4BD1F847
:1051F800D0219B1AB1F8D421A11A8AB209B2002988
:10520800BCBF02F57A7211B25344059AB8BF03F1D4
:10521800FF331344BDF8182011448AB209B2B1F51E
:105228007A7FA2BFA2F57A7211B20133ADF81010DD
:10523800184604990393FDF70BFEFDF7D5FE02F01F
:1052480091F86AE6A9F10303012B7FF666AE02F036
:1052580085F862E6A31CDBB2725DF15CE31CDBB28D
:10526800651DF35C0434E4B21B04305D43EA01239A
:1052780013436421594300F00F0002F070F8EDB2B7
:10528800014600221120E5E6A31CDBB2F05C735D49
:10529800251D0334E4B243EA0020315DEDB202F08B
:1052A80060F83AE6A31CDBB2725DF15CE31CDBB28A
:1052B8006420F35C1B0443EA01231343584302F0C0
:1052C80052F8024638B10022012113200434FFF7B6
:1052D8005FFCE5B221E60146F7E700BFA002002027
:1052E800803DD5122DE9F04F93B09F4E05930023D2
:1052F8000F9386F8FC31A6F81E22A6F8123286F81B
:105308001532C6F81832A6F81C3286F82232C6F8CA
:10531800243286F810321446944B059A86F82022D7
:1053280096F82822DB6A86F8212207460D46984718
:1053380006F5B870FDF722FE2946384601F0FBFF56
:10534800814628B1059BF481337413B0BDE8F08F12
:1053580096F85441012C0BD101F0F1FFC0B1204661
:1053680001F0E2FF484601F0E4FF032386F821320A
:105378003B7806935B09013B062B00F24E82DFE87F
:1053880013F013004C02B5004C02B5004C02390270
:1053980001F0D7FF0028EBD0204601F0C6FF4846B1
:1053A80001F0C8FF0423E1E796F89D402CB10123E2
:1053B80086F81132FFF736FDC7E7691E781C6C4B7B
:1053C800D6F8282389B202F0A7F9069B694886F81F
:1053D8002932291F0FABD6F8282389B202F07EF9AB
:1053E8007319204693F8259293F8268293F827A2FA
:1053F80093F8287202F06CF800284FD03F0647EA6D
:105408000A470F9B47EA090747EA0827BB4268D1C2
:10541800594F009707F1100307F15201B6F82C23F2
:10542800D6F8280302F097F996F82F3296F82E222C
:1054380096F836011B0443EA022396F82D221343FB
:10544800C6F83033D6F83032C6F8343396F83432EA
:10545800C3F3021203F00F0386F8DC3096F83532F6
:1054680086F8D52003F00F03012B4FF47A7238BF6A
:1054780001235343C6F8C43010A913445E37113DC5
:10548800C6F8C83010978DF8445002F0CAF9214682
:10549800204601F0CBFF012386F89D30324C374B74
:1054A80094F82C515A7894F8540194F8FC111B780C
:1054B800002D40F0B881022802D13148FDF75EFD89
:1054C80094F84131002B7FF440AF237E2D4843F000
:1054D800200301212376FDF77FFD2A48FDF7D8FC3C
:1054E80033E72146072001F0A1FFD7E796F8E1301E
:1054F8008DF8363096F814328DF8353096F8EC3051
:1055080096F8360109330DA98DF8343002F06AF99E
:10551800A5F10D031BB223EAE37383420E903FF615
:1055280046AFD7F801300493049AD6F8343397F885
:105538000580934278D0D6F830A1BAF1000F01D196
:105548000B2335E7DAF80030049A934208D1069B1A
:10555800DAF8244003F0E003602B15D00D2327E789
:10556800DAF838A0E9E700BFA00200203C92000862
:10557800CA040020C9040020780400202800002064
:10558800D80300202804002018F0600FE6D10AF1A3
:10559800040307930AF1140309934FF0010B7A19D6
:1055A80008F00F03089312F8023C12F8031C1B04BE
:1055B80043EA012312F8041C12F8012C0B4343EAB6
:1055C80002630A93FB881B1B9AB21BB2291F002B8C
:1055D8000B9289B20FAA31DB0B9BE6180123CDE9A8
:1055E80001620093079A049B384601F0C1FF0F9BA4
:1055F8000A9A934218BF4FF000098E4C4FF01103DE
:1056080094F836018DF834300DA908BF4FF0010920
:1056180002F0E8F80B9B0E90984221D80A2384F8F0
:105628001132C4F82462C5E6834B09934FF0000B8E
:105638001033D6F8A4400793DA46B0E704F580366D
:105648001E440123CDE901620093079A049B384662
:1056580001F08EFF0F9B0A9A934218BF2646CCE7AB
:10566800B9F1000F00F0C4800023C8F3001284F8D9
:10567800113284F812B284F81522C4F8183284F86A
:105688001C32C4F8246284F8F931C4F8A83063766F
:10569800BBF1000F4DD0022384F81032DAF8243021
:1056A800B34204D11EB1082384F8113282E6CAF845
:1056B800246094F8F831012B5BD118F0200F07D043
:1056C8000023A376C8F3401384F8FC3184F822320F
:1056D800089BDFF8609103F10802291F914208F046
:1056E8000F037BDD089901F1090AA5EB0A05B95CEE
:1056F80089F81312043DEDB200294ED15BEA030B81
:105708003AD109F229240123079A00932946049BD8
:1057180007EB0A00CDE9016401F0D8FF99F82132BE
:1057280000939DF814302A4659462046FFF7A6FBF9
:105738002CE0069AD4F8A41002F0E002A02A0FD1B7
:1057480001238E4284F89C3084F8103204D11EB1B3
:10575800237E43F004032376364BC3F8A460A8E7FE
:105768008E4284F89C3084F81032F5D1002EF3D0A4
:1057780099E70023A376ABE799F8183089F8FC116C
:1057880043F0040389F8183089F8221299F8183080
:1057980043F0020389F8183080E65BB1BBF1000FD3
:1057A80008D199F82132009308219DF81430384621
:1057B800FFF764FBDFF88480049B099ACDE9016850
:1057C80001260096294607EB0A0001F07FFFC4F87E
:1057D800188284F81C5284F81D62D7E7002BD5D0B4
:1057E80094F82132009308219DF8143038469DE73B
:1057F8000C2359E7114C2A46791C2046FFF7A7F9D4
:105808000323A6F81032337EC6F81842013D43F050
:10581800020386F81C52337640E6012386F81132DB
:10582800FFF700FB3AE600297FF447AE9A427FF67D
:1058380047AE42E6A002002078040020C9040020F8
:10584800034B5B6B08B9084618470020FCE700BF0C
:105858003C92000838B51A4C04F5B870FDF78EFB79
:1058680094F8343184F8383394F8DC3084F83933D8
:10587800D4F8D830C4F83C3394F8E13084F848338D
:1058880094F8EC3084F8493394F8543194F836019C
:105898009A1E53425341012504F5057204F54E71D1
:1058A80084F84B5384F84A3301F0E7FF38B1D4F851
:1058B800C01094F84A03FFF7C3FF84F8285238BD94
:1058C800A002002008B50020FFF7C4FF024B022207
:1058D80083F8282208BD00BFA0020020F8B5334C89
:1058E80094F85431022B02D0314BDB6A984701F00F
:1058F80024FD054628B1022001F015FD002001F025
:1059080017FD94F85471012F1BD101F018FD0646BC
:1059180030B1384601F008FD002001F00AFD354697
:1059280001F00FFD68B1012001F0FFFC002001F03B
:1059380001FD94F85431022B36D1BDE8F840FFF749
:10594800C1BF002DF5D194F8282294F82C31E2B982
:1059580013B1032384F8F931032001F099FD94F879
:105968005431022BE9D0D4E9D401FDF756FBD4F821
:105978005833984271F10001DBD30E48FDF7FEFA67
:10598800237E43F020032376D3E713B1042384F85E
:10599800F931042001F07CFD94F85431022BCCD06D
:1059A800237E43F020032376F8BD00BFA002002029
:1059B8003C9200081004002010B50A4C94F85431A9
:1059C800022B0CD0084BDB6A9847022084F8F901B7
:1059D80001F05EFD237E43F02003237610BDFFF720
:1059E80071FFF2E7A00200203C920008F8B5334CA2
:1059F80094F85431022B02D0314BDB6A984701F0FE
:105A08009CFC054628B1022001F08DFC002001F025
:105A18008FFC94F85471012F1BD101F090FC0646BD
:105A280030B1384601F080FC002001F082FC354698
:105A380001F087FC68B1012001F077FC002001F03B
:105A480079FC94F85431022B36D1BDE8F840FFF7C1
:105A580039BF002DF5D194F8282294F82C31E2B9F9
:105A680013B1052384F8F931052001F011FD94F8EC
:105A78005431022BE9D0D4E9D401FDF7CEFAD4F899
:105A88005833984271F10001DBD30E48FDF776FADE
:105A9800237E43F020032376D3E713B1062384F84B
:105AA800F931062001F0F4FC94F85431022BCCD0E3
:105AB800237E43F020032376F8BD00BFA002002018
:105AC8003C92000810040020F0B589B0FDF78CFA6C
